:100000000C94AB000C94D3000C94D3000C943C02E1
:100010000C9460020C9484020C94D3000C94D300D2
:100020000C94D3000C94D3000C94D3000C94D30004
:100030000C94D3000C94D3000C94D3000C94D300F4
:100040000C9468060C94D3000C94D3000C94D30049
:100050000C94D3000C94D3000C94D3000C94D300D4
:100060000C94D3000C94D30000C2010001001100D5
:1000700011000C0000E100000A002500250021000D
:10008000009600001900390039003600127A00008D
:100090001F004600460044008070000022004D0012
:1000A0004D004A00004B00003600750075007200DC
:1000B000403800004A009C009C0099008025000008
:1000C0007200EC00EC00E900C0120000E900DA0167
:1000D000DA01D70160090000D701B603B603B30304
:1000E000B0040000B3036E076E076B072C0100001D
:1000F000DC0EC11DC11DBE1D000000002400270034
:100100002A0000000000250028002B00000000004D
:100110002300260029000404040404040404020249
:100120000202020203030303030301020408102076
:100130004080010204081020010204081020000081
:100140000007000201000003040600000000000098
:1001500000007405790511241FBECFEFD8E0DEBF83
:10016000CDBF11E0A0E0B1E0E6E1F2E102C0059010
:100170000D92A831B107D9F711E0A8E1B1E001C0B3
:100180001D92A938B107E1F711E0C4E5D1E004C040
:100190002297FE010E94C707C235D107C9F70E9406
:1001A00056060C94FE080C94000020911801309122
:1001B000190128173907B1F490915B0180915A0118
:1001C000981781F0E0915B01F0E0E65EFE4F208140
:1001D00080915B0190E001968F73907080935B013A
:1001E00030E002C02FEF3FEFC901089520911801C0
:1001F000309119012817390779F480915A0120911B
:100200005B0190E0805C9F4F821B910960E470E08D
:100210000E949E079C0102C020E030E0C9010895C1
:1002200020911801309119012817390749F48FB727
:10023000F89410925A0190915A0190935B018FBFEC
:10024000089520911801309119012817390781F478
:1002500090915B0180915A01981751F0E0915B01F8
:10026000F0E0E65EFE4F2081332727FD309502C087
:100270002FEF3FEFC901089520E001972FEF8F3F47
:100280009207D9F70895FC01809118019091190106
:100290008E179F0791F0838D8E7F838F8FB7F89491
:1002A00010925A0190915A0190935B01F0931901B9
:1002B000E09318018FBF81E0089580E00895EF92E8
:1002C000FF920F931F93CF93DF93EC018B8DEE85FD
:1002D000FF859D8581FF04C08081892329F445C065
:1002E0008081892309F041C08B899C890E943C014F
:1002F00008E010E0EE24E394FF248D899E890E949B
:100300003C01EE85FF8580819D85892311F0FE28C3
:1003100003C08E2D8095F822EE0C0150104069F735
:100320008F89988D0E943C018B8D81FDF094809186
:100330005A0120915B0190E001968F73907030E03C
:100340008217930779F0E0915A01F0E0E65EFE4FE4
:10035000F08280915A0190E001968F7390708093A3
:100360005A0103C08B8D81608B8FDF91CF911F91DC
:100370000F91FF90EF900895FC01A189B2899089B7
:10038000662329F42C91892F8095822302C08C91B9
:10039000892B8C930895DF92EF92FF920F931F9316
:1003A000CF93DF93EC01E62E898D9A8D009739F477
:1003B00081E090E09B838A8320E030E04BC0DFB691
:1003C000F8948B8D61E081FF60E0CE010E94BC015A
:1003D000898D9A8D05960E943C018B8D81FF19C0F5
:1003E00008E010E0FF24F3948F2D8E2119F0CE0148
:1003F00060E002C0CE0161E00E94BC01898D9A8D4F
:100400000E943C01FF0C0150104071F7CE0160E0EA
:1004100018C008E010E0FF24F3948F2D8E2119F00E
:10042000CE0161E002C0CE0160E00E94BC01898D76
:100430009A8D0E943C01FF0C0150104071F7CE01D3
:1004400061E00E94BC01DFBE898D9A8D0E943C0153
:1004500021E030E0C901DF91CF911F910F91FF9012
:10046000EF90DF9008958091180190911901009705
:1004700011F00E945F0108951F920F920FB60F9224
:1004800011242F933F934F935F936F937F938F9399
:100490009F93AF93BF93EF93FF930E943302FF911B
:1004A000EF91BF91AF919F918F917F916F915F91EC
:1004B0004F913F912F910F900FBE0F901F90189565
:1004C0001F920F920FB60F9211242F933F934F93C9
:1004D0005F936F937F938F939F93AF93BF93EF93AC
:1004E000FF930E943302FF91EF91BF91AF919F91D3
:1004F0008F917F916F915F914F913F912F910F90CD
:100500000FBE0F901F9018951F920F920FB60F926B
:1005100011242F933F934F935F936F937F938F9308
:100520009F93AF93BF93EF93FF930E943302FF918A
:10053000EF91BF91AF919F918F917F916F915F915B
:100540004F913F912F910F900FBE0F901F901895D4
:100550001F93CF93DF93EC01162F862F61E00E944B
:100560001807812F61E00E943C07812F90E0FC0179
:10057000E65DFE4FE491E88BFC01EA5EFE4FE491FC
:10058000F0E0EE0FFF1FEE5FFE4F85919491898B97
:100590009A8BDF91CF911F9108951F93CF93DF9393
:1005A000EC01162F862F60E00E9418078B8D81FDCD
:1005B00004C0812F61E00E943C071C87812F90E0DE
:1005C000FC01E65DFE4FE491ED87FC01EA5EFE4F23
:1005D000E491F0E0EE0FFF1FE45FFE4F85919491F0
:1005E0008E879F87DF91CF911F9108951F93CF939F
:1005F000DF93EC01162F1B821A8288EE93E0A0E0B5
:10060000B0E08C839D83AE83BF838BE091E09983C0
:1006100088831C8A1B8A1E8A1D8A188E1F8A1A8E3E
:10062000198E8B8D2170220F8C7F822B8B8FCE01A8
:10063000642F0E94A802CE01612F0E94CD02DF919B
:10064000CF911F910895EF92FF920F931F93CF9335
:10065000DF93EC017A018B011A8E198E188E1F8A96
:100660001E8A1D8A1C8A1B8A40E050E09A01220FD4
:10067000331F240F351F220F331F220F331FF901A1
:10068000E859FF4F85919591A591B4918E159F05DD
:10069000A007B107E9F4F901E459FF4F859194915E
:1006A0008B8B9C8BF901E259FF4F859194918D8B37
:1006B0009E8BF901E059FF4F859194918F8B988F14
:1006C0002E583F4FF90185919491898F9A8F06C0DA
:1006D0004F5F5F4F4C30510509F0C8CF8F89988D1F
:1006E000009709F448C09C85963108F040C02091DD
:1006F0006800983020F09E3020F082E003C084E053
:1007000001C081E0822B809368004C85483048F01E
:100710004E3060F04631C8F1A0E0B0E0E0E0F0E03B
:1007200009C0ADE6B0E0EDE6F0E004C0ABE6B0E055
:10073000EBE6F0E05081483040F481E090E002C008
:10074000880F991F4A95E2F710C0242F30E04E30F1
:1007500018F42850304002C02E50304081E090E024
:1007600002C0880F991F2A95E2F7852B8C93898DFB
:100770009A8D0E943C01CE010E944301DF91CF91EE
:100780001F910F91FF90EF900895ACE6B0E0ECE67A
:10079000F0E0D0CFFC014485463150F5483028F0D8
:1007A0004E3030F0ECE6F0E005C0EDE6F0E002C0DF
:1007B000EBE6F0E05081483040F481E090E002C088
:1007C000880F991F4A95E2F710C0242F30E04E3071
:1007D00018F42850304002C02E50304081E090E0A4
:1007E00002C0880F991F2A95E2F7809585238083A0
:1007F00008952BE031E0FC01318320830E94CA037D
:1008000008950F931F9381309105F1F488E090E0F3
:100810000E9465068C010E94D20500935C01109332
:100820005D0180E190E00E9465068C010E948B05CD
:1008300000935E0110935F0180E691E060E041E08B
:1008400020E00E94F60206C0009721F480E691E0C5
:100850000E94F9031F910F910895EF92FF920F9359
:100860001F93DF93CF930F92CDB7DEB780E691E071
:1008700040E855E260E070E00E942303E0905C01F4
:10088000F0905D0183E090E00E9465068C016AE0D3
:1008900040E050E00E94E305C70160E070E0A8017D
:1008A0000E94D305E0905C01F0905D0183E090E050
:1008B0000E9465068C016BE040E050E00E94E30579
:1008C000C70161E070E0A8010E94D305E0905C01DF
:1008D000F0905D0183E090E00E9465068C016CE081
:1008E00040E050E00E94E305C70162E070E0A8012B
:1008F0000E94D305E0905C01F0905D0183E090E000
:100900000E9465068C016DE040E050E00E94E30526
:10091000C70163E070E0A8010E94D305E0905E018A
:10092000F0905F0183E090E00E946506182F792F18
:1009300063E742E050E079830E947E05C701612FA2
:1009400079810E948C05E0905E01F0905F0183E068
:1009500090E00E946506182F792F63E543E050E090
:1009600079830E947E05C701612F79810E948C05E1
:10097000E0905E01F0905F0183E090E00E946506E8
:10098000182F792F61E644E050E079830E947E05BC
:10099000C701612F79810E948C05E0905E01F09083
:1009A0005F0183E090E00E946506182F792F62E6D0
:1009B00045E050E079830E947E05C701612F79816F
:1009C0000E948C05E0905E01F0905F0183E090E072
:1009D0000E946506182F792F63E646E050E0798380
:1009E0000E947E05C701612F79810E948C05E090ED
:1009F0005E01F0905F0183E090E00E946506182F91
:100A0000792F68E747E050E079830E947E05C701AF
:100A1000612F79810E948C05E0905E01F0905F016A
:100A200083E090E00E946506182F792F69E748E07F
:100A300050E079830E947E05C701612F79810E9471
:100A40008C05E0905E01F0905F0183E090E00E94F1
:100A50006506182F792F6AE749E050E079830E94F4
:100A60007E05C701612F79810E948C050F90CF917F
:100A7000DF911F910F91FF90EF9008950F931F93B7
:100A8000CF93DF93C0E0D0E080915C0190915D0155
:100A9000BE010E94DB058C010E94E8050E947407DC
:100AA00081309105C1F4C8010E94E8058B3029F01E
:100AB000C8010E94E8058C3041F4C8010E94E80595
:100AC000682F80E691E00E94260680E691E060E0D3
:100AD00071E00E9443062196C430D105A9F6DF914A
:100AE000CF911F910F91089581E090E00E94010441
:100AF000089580E090E00E9401040895FC01842F95
:100B000060834183528360E00E9418070895FC01CE
:100B100081819281089508958F929F92AF92BF92A2
:100B2000CF92DF92EF92FF920F931F93CF93DF93B9
:100B30005C016B01EC014C0100E010E0F4018191DB
:100B400091914F010E9487057C01C6010E94870593
:100B5000E816F90641F4F801EE0FFF1FEA0DFB1D40
:100B6000D182C08212C00F5F1F4F0830110531F7CC
:100B700088E090E0288139812115310511F4D9826E
:100B8000C882019722960097A9F7DF91CF911F9114
:100B90000F91FF90EF90DF90CF90BF90AF909F901C
:100BA0008F9008950895660F771F680F791FFB01D6
:100BB000518340830895FB01EE0FFF1FE80FF91FDB
:100BC000808191810895FC0160835283418308955F
:100BD000FC0180810895CF92DF92EF92FF920F93F4
:100BE0001F93CF93DF936C017B018A01C0E0D0E0BB
:100BF0000FC0D7016D917D01D601ED91FC9101905F
:100C0000F081E02DC6010995C80FD91F0150104091
:100C10000115110571F7CE01DF91CF911F910F9151
:100C2000FF90EF90DF90CF900895DB010D900020B2
:100C3000E9F7AD0141505040461B570BDC01ED91E7
:100C4000FC910280F381E02D09950895DC01ED917E
:100C5000FC910190F081E02D099508950F931F9369
:100C6000CF93DF93EC016DE00E9426068C01CE014C
:100C70006AE00E942606080F191FC801DF91CF9174
:100C80001F910F9108950F931F93CF93DF93EC0162
:100C90000E9415068C01CE010E942E06080F191F16
:100CA000C801DF91CF911F910F910895CF93DF93EA
:100CB0000E94B0060E942D04C0E0D0E00E943E05D4
:100CC0002097E1F30E940000F9CF0E94CB0708951E
:100CD0001F920F920FB60F9211242F933F938F9371
:100CE0009F93AF93BF938091800190918101A091D8
:100CF0008201B0918301309184010196A11DB11D43
:100D0000232F2D5F2D3720F02D570196A11DB11DEA
:100D1000209384018093800190938101A0938201AC
:100D2000B093830180917C0190917D01A0917E011F
:100D3000B0917F010196A11DB11D80937C0190931C
:100D40007D01A0937E01B0937F01BF91AF919F91F0
:100D50008F913F912F910F900FBE0F901F9018957C
:100D6000789484B5826084BD84B5816084BD85B586
:100D7000826085BD85B5816085BDEEE6F0E080814D
:100D800081608083E1E8F0E010828081826080836E
:100D9000808181608083E0E8F0E0808181608083F1
:100DA000E1EBF0E0808184608083E0EBF0E0808123
:100DB00081608083EAE7F0E08081846080838081C5
:100DC000826080838081816080838081806880836D
:100DD0001092C1000895833071F0843028F481307E
:100DE000A1F0823021F514C08630B1F08730D1F007
:100DF0008430E9F404C0809180008F7703C0809133
:100E000080008F7D80938000089584B58F7702C025
:100E100084B58F7D84BD08958091B0008F778093D5
:100E2000B00008958091B0008F7D8093B000089548
:100E300090E0FC01E65DFE4F2491FC01EA5EFE4F6E
:100E4000E491EE23C1F0F0E0EE0FFF1FE850FF4FFA
:100E500085919491DC01662341F49FB7F8948C91BD
:100E6000209582238C939FBF08959FB7F8948C910F
:100E7000822B8C939FBF08950F931F93DF93CF9383
:100E80000F92CDB7DEB7282F30E0F901E25CFE4FBC
:100E90008491F901E65DFE4F14912A5E3E4FF901FF
:100EA00004910023D9F0882321F069830E94EB0686
:100EB0006981E02FF0E0EE0FFF1FEE5FFE4F85919E
:100EC0009491DC019FB7F894662321F48C911095DE
:100ED000812302C08C91812B8C939FBF0F90CF9167
:100EE000DF911F910F9108950F931F93282F30E0EA
:100EF000F901E25CFE4F8491F901E65DFE4F049139
:100F00002A5E3E4FF9011491112391F0882311F0CC
:100F10000E94EB06E12FF0E0EE0FFF1FE45FFE4FB3
:100F200085919491DC018C91802321E030E011F4D3
:100F300020E030E0C9011F910F91089597FB092E21
:100F400007260AD077FD04D00CD006D000201AF472
:100F5000709561957F4F0895F6F7909581959F4F15
:100F60000895AA1BBB1B51E107C0AA1FBB1FA617F0
:100F7000B70710F0A61BB70B881F991F5A95A9F742
:100F800080959095BC01CD010895EE0FFF1F05904F
:100F9000F491E02D0994CF93DF938230910510F402
:100FA00082E090E0E0918701F091880140E050E01C
:100FB00020E030E026C06081718168177907E0F099
:100FC0006817790781F4828193812115310531F009
:100FD000D90113969C938E9312972BC090938801FE
:100FE0008093870126C04115510519F064177507D4
:100FF00018F4AB01E901DF019F0172816381E72FE2
:10100000F62F3097C1F64115510501F1481B590BD8
:101010004430510580F412968D919C91139720973E
:1010200019F09B838A8304C0909388018093870181
:10103000FD01329646C0FD01E40FF51F81939193A7
:101040004250504011965C934E933BC020918501D5
:10105000309186012115310541F420910301309131
:101060000401309386012093850120910501309180
:1010700006012115310541F42DB73EB7409101011C
:1010800050910201241B350BE0918501F0918601FE
:10109000E217F307A0F42E1B3F0B2817390778F04F
:1010A000AC014E5F5F4F2417350748F04E0F5F1FAE
:1010B00050938601409385018193919302C0E0E0B3
:1010C000F0E0CF01DF91CF910895CF93DF930097A8
:1010D00009F491C0FC01329713821282609187015A
:1010E000709188016115710581F420813181280F8B
:1010F000391F80918501909186018217930799F598
:10110000F0938601E093850176C0DB0180E090E0FA
:1011100002C0CD01D901AE17BF0748F412962D9138
:101120003C91139721153105A1F7CD0121C0B3835F
:10113000A283EF01499159919E01240F351FA217F7
:10114000B30779F42D913C911197240F351F2E5F31
:101150003F4F3183208312962D913C911397338317
:101160002283009729F4F0938801E093870143C01C
:10117000DC011396FC93EE9312974D915D91A40FB1
:10118000B51FEA17FB0769F420813181240F351F51
:101190002E5F3F4FEC0139832883228133813B83CB
:1011A0002A83E0E0F0E002C0FB01BC01DB01129603
:1011B0008D919C9113970097B9F79B012E5F3F4F3C
:1011C0008D919C911197820F931F409185015091B1
:1011D00086014817590779F4309729F4109288014D
:1011E0001092870102C01382128222503040309345
:1011F000860120938501DF91CF91089511E0C4E528
:10120000D1E004C0FE010E94C7072296C635D1076F
:06121000C9F7F894FFCFBE
:101216000020008901000000000000CB01EB05F66C
:0812260000D5002101100100B8
:00000001FF
